:020000040000FA
:1000000083168701FF308600880107308100831244
:100010008701C2203830A200B820A9200130A200F8
:10002000B820A9200C30A200B820A9200130A200DD
:10003000B820A9202030A200B1202030A200B12099
:100040002030A200B1202030A200B1205330A20005
:10005000B1205430A200B1204130A200B120543070
:10006000A200B1204930A200B1204F30A200B1203F
:100070004E30A200B1202030A200B1203130A200C9
:10008000B12086184428CC20061941281E210130B1
:10009000A200B820A9202030A200B1202030A20068
:1000A000B1202030A200B1202030A200B120533076
:1000B000A200B1205430A200B1204130A200B120F2
:1000C0005430A200B1204930A200B1204F30A2002C
:1000D000B1204E30A200B1202030A200B120323039
:1000E000A200B12006187528F520061972281E21D5
:1000F0000130A200B820A9202030A200B120203079
:10010000A200B1202030A200B1202030A200B120F6
:100110005330A200B1205430A200B1204130A200DF
:10012000B1205430A200B1204930A200B1204F309C
:10013000A200B1204E30A200B1202030A200B12098
:100140003330A200B1200618A628F5208618A3286F
:100150004721881322088700B8200817B820081301
:100160000800881722088700B8200817081308001D
:100170000130A100963081000B110B1DBD28A10B91
:10018000BA2808000830A0000B3081000B110B1DAD
:10019000C728A00BC42808000130A200B820A9205D
:1001A0002030A200B1202030A200B1202030A200D7
:1001B000B1202030A200B1204730A200B1204F3042
:1001C000A200B1203230A200B120861A47280C309C
:1001D0008800C22006308800C22003308800C22078
:1001E00009308800C220E52808000130A200B820AC
:1001F000A9202030A200B1202030A200B120203060
:10020000A200B1202030A200B1204730A200B120CE
:100210004F30A200B1203130A200B120061A1628BA
:1002200003308800C22006308800C2200C308800CD
:10023000C22009308800C2200E2908000130A20027
:10024000B820A9202030A200B1202030A200B12087
:100250002030A200B1202030A200B1204730A200FF
:10026000B1204F30A200B1203330A200B120061BD4
:1002700078280C308800C22006308800C220033065
:100280008800C22009308800C220372908000130C8
:10029000A200B820A9202030A200B1202030A20066
:1002A000B1202030A200B1202030A200B120473080
:1002B000A200B1204F30A200B1203230A200B12004
:1002C000861A472803308800C22006308800C220E2
:1002D0000C308800C22009308800C2206029080044
:0402E00000340034B2
:00000001FF
